{
  "contractName": "HawkerHut",
  "abi": [
    {
      "anonymous": false,
      "inputs": [
        {
          "indexed": false,
          "internalType": "string",
          "name": "message",
          "type": "string"
        },
        {
          "indexed": false,
          "internalType": "bool",
          "name": "result",
          "type": "bool"
        },
        {
          "indexed": false,
          "internalType": "uint256",
          "name": "amount",
          "type": "uint256"
        }
      ],
      "name": "success",
      "type": "event"
    },
    {
      "inputs": [
        {
          "internalType": "string",
          "name": "id",
          "type": "string"
        }
      ],
      "name": "pay",
      "outputs": [],
      "stateMutability": "payable",
      "type": "function"
    },
    {
      "inputs": [
        {
          "internalType": "string",
          "name": "id",
          "type": "string"
        }
      ],
      "name": "hawkerId",
      "outputs": [],
      "stateMutability": "nonpayable",
      "type": "function"
    },
    {
      "inputs": [
        {
          "internalType": "string",
          "name": "id",
          "type": "string"
        }
      ],
      "name": "cancelPayment",
      "outputs": [],
      "stateMutability": "nonpayable",
      "type": "function"
    },
    {
      "inputs": [
        {
          "internalType": "string",
          "name": "id",
          "type": "string"
        }
      ],
      "name": "partialPayment",
      "outputs": [],
      "stateMutability": "nonpayable",
      "type": "function"
    },
    {
      "inputs": [
        {
          "internalType": "string",
          "name": "id",
          "type": "string"
        }
      ],
      "name": "completePayment",
      "outputs": [],
      "stateMutability": "nonpayable",
      "type": "function"
    },
    {
      "inputs": [
        {
          "internalType": "string",
          "name": "id",
          "type": "string"
        }
      ],
      "name": "hawker_withdraw",
      "outputs": [],
      "stateMutability": "nonpayable",
      "type": "function"
    }
  ],
  "bytecode": "0x608060405234801561000f575f80fd5b506118ed8061001d5f395ff3fe608060405260043610610054575f3560e01c80632b66d72e1461005857806332410f651461007457806373dc16061461009c57806384126e01146100c4578063b6b89528146100ec578063fb2b205614610114575b5f80fd5b610072600480360381019061006d91906110b4565b61013c565b005b34801561007f575f80fd5b5061009a600480360381019061009591906110b4565b61035b565b005b3480156100a7575f80fd5b506100c260048036038101906100bd91906110b4565b6105d5565b005b3480156100cf575f80fd5b506100ea60048036038101906100e591906110b4565b6108c7565b005b3480156100f7575f80fd5b50610112600480360381019061010d91906110b4565b610ca2565b005b34801561011f575f80fd5b5061013a600480360381019061013591906110b4565b610ecc565b005b67016345785d8a000034106102da5767016345785d8a0000341015610196576040517f08c379a000000000000000000000000000000000000000000000000000000000815260040161018d9061117b565b60405180910390fd5b335f826040516101a69190611205565b90815260200160405180910390205f015f6101000a81548173ffffffffffffffffffffffffffffffffffffffff021916908373ffffffffffffffffffffffffffffffffffffffff160217905550335f826040516102039190611205565b90815260200160405180910390206001015f6101000a81548173ffffffffffffffffffffffffffffffffffffffff021916908373ffffffffffffffffffffffffffffffffffffffff160217905550345f826040516102619190611205565b9081526020016040518091039020600201819055505f80826040516102869190611205565b9081526020016040518091039020600301819055507fc57f6c02bf9c5fbdac025b71c1341ea66f77af130324453e0ed9b51afd5e54566001346040516102cd929190611297565b60405180910390a1610358565b3373ffffffffffffffffffffffffffffffffffffffff166108fc3490811502906040515f60405180830381858888f1935050505015801561031d573d5f803e3d5ffd5b507fc57f6c02bf9c5fbdac025b71c1341ea66f77af130324453e0ed9b51afd5e54565f8060405161034f929190611313565b60405180910390a15b50565b3373ffffffffffffffffffffffffffffffffffffffff165f826040516103819190611205565b90815260200160405180910390205f015f9054906101000a900473ffffffffffffffffffffffffffffffffffffffff1673ffffffffffffffffffffffffffffffffffffffff1603610598573373ffffffffffffffffffffffffffffffffffffffff165f826040516103f29190611205565b90815260200160405180910390205f015f9054906101000a900473ffffffffffffffffffffffffffffffffffffffff1673ffffffffffffffffffffffffffffffffffffffff1614610478576040517f08c379a000000000000000000000000000000000000000000000000000000000815260040161046f90611397565b60405180910390fd5b5f60025f8360405161048a9190611205565b9081526020016040518091039020600201546104a6919061140f565b9050805f836040516104b89190611205565b90815260200160405180910390206002015f8282546104d7919061143f565b92505081905550805f836040516104ee9190611205565b90815260200160405180910390206003015f82825461050d9190611472565b925050819055503373ffffffffffffffffffffffffffffffffffffffff166108fc8290811502906040515f60405180830381858888f19350505050158015610557573d5f803e3d5ffd5b507fc57f6c02bf9c5fbdac025b71c1341ea66f77af130324453e0ed9b51afd5e545660018260405161058a9291906114ef565b60405180910390a1506105d2565b7fc57f6c02bf9c5fbdac025b71c1341ea66f77af130324453e0ed9b51afd5e54565f806040516105c9929190611529565b60405180910390a15b50565b3373ffffffffffffffffffffffffffffffffffffffff165f826040516105fb9190611205565b90815260200160405180910390206001015f9054906101000a900473ffffffffffffffffffffffffffffffffffffffff1673ffffffffffffffffffffffffffffffffffffffff160361088a575f80826040516106579190611205565b908152602001604051809103902060030154111561084b573373ffffffffffffffffffffffffffffffffffffffff165f826040516106959190611205565b90815260200160405180910390206001015f9054906101000a900473ffffffffffffffffffffffffffffffffffffffff1673ffffffffffffffffffffffffffffffffffffffff161461071c576040517f08c379a0000000000000000000000000000000000000000000000000000000008152600401610713906115ad565b60405180910390fd5b5f808260405161072c9190611205565b9081526020016040518091039020600301541161077e576040517f08c379a000000000000000000000000000000000000000000000000000000000815260040161077590611615565b60405180910390fd5b5f808260405161078e9190611205565b90815260200160405180910390206003015490505f80836040516107b29190611205565b9081526020016040518091039020600301819055503373ffffffffffffffffffffffffffffffffffffffff166108fc8290811502906040515f60405180830381858888f1935050505015801561080a573d5f803e3d5ffd5b507fc57f6c02bf9c5fbdac025b71c1341ea66f77af130324453e0ed9b51afd5e545660018260405161083d92919061167d565b60405180910390a150610885565b7fc57f6c02bf9c5fbdac025b71c1341ea66f77af130324453e0ed9b51afd5e54565f8060405161087c9291906116b7565b60405180910390a15b6108c4565b7fc57f6c02bf9c5fbdac025b71c1341ea66f77af130324453e0ed9b51afd5e54565f806040516108bb9291906116f1565b60405180910390a15b50565b3373ffffffffffffffffffffffffffffffffffffffff165f826040516108ed9190611205565b90815260200160405180910390205f015f9054906101000a900473ffffffffffffffffffffffffffffffffffffffff1673ffffffffffffffffffffffffffffffffffffffff1614806109a957503373ffffffffffffffffffffffffffffffffffffffff165f826040516109609190611205565b90815260200160405180910390206001015f9054906101000a900473ffffffffffffffffffffffffffffffffffffffff1673ffffffffffffffffffffffffffffffffffffffff16145b15610c65575f80826040516109be9190611205565b9081526020016040518091039020600201541115610c26573373ffffffffffffffffffffffffffffffffffffffff165f826040516109fc9190611205565b90815260200160405180910390205f015f9054906101000a900473ffffffffffffffffffffffffffffffffffffffff1673ffffffffffffffffffffffffffffffffffffffff161480610ab857503373ffffffffffffffffffffffffffffffffffffffff165f82604051610a6f9190611205565b90815260200160405180910390206001015f9054906101000a900473ffffffffffffffffffffffffffffffffffffffff1673ffffffffffffffffffffffffffffffffffffffff16145b610af7576040517f08c379a0000000000000000000000000000000000000000000000000000000008152600401610aee90611397565b60405180910390fd5b5f8082604051610b079190611205565b90815260200160405180910390206002015411610b59576040517f08c379a0000000000000000000000000000000000000000000000000000000008152600401610b5090611615565b60405180910390fd5b5f8082604051610b699190611205565b90815260200160405180910390206002015490505f8083604051610b8d9190611205565b9081526020016040518091039020600201819055503373ffffffffffffffffffffffffffffffffffffffff166108fc8290811502906040515f60405180830381858888f19350505050158015610be5573d5f803e3d5ffd5b507fc57f6c02bf9c5fbdac025b71c1341ea66f77af130324453e0ed9b51afd5e5456600182604051610c18929190611775565b60405180910390a150610c60565b7fc57f6c02bf9c5fbdac025b71c1341ea66f77af130324453e0ed9b51afd5e54565f80604051610c579291906116b7565b60405180910390a15b610c9f565b7fc57f6c02bf9c5fbdac025b71c1341ea66f77af130324453e0ed9b51afd5e54565f80604051610c96929190611529565b60405180910390a15b50565b3373ffffffffffffffffffffffffffffffffffffffff165f82604051610cc89190611205565b90815260200160405180910390205f015f9054906101000a900473ffffffffffffffffffffffffffffffffffffffff1673ffffffffffffffffffffffffffffffffffffffff1603610e8f573373ffffffffffffffffffffffffffffffffffffffff165f82604051610d399190611205565b90815260200160405180910390205f015f9054906101000a900473ffffffffffffffffffffffffffffffffffffffff1673ffffffffffffffffffffffffffffffffffffffff1614610dbf576040517f08c379a0000000000000000000000000000000000000000000000000000000008152600401610db690611397565b60405180910390fd5b5f8082604051610dcf9190611205565b9081526020016040518091039020600201549050805f83604051610df39190611205565b90815260200160405180910390206002015f828254610e12919061143f565b92505081905550805f83604051610e299190611205565b90815260200160405180910390206003015f828254610e489190611472565b925050819055507fc57f6c02bf9c5fbdac025b71c1341ea66f77af130324453e0ed9b51afd5e5456600182604051610e819291906117f9565b60405180910390a150610ec9565b7fc57f6c02bf9c5fbdac025b71c1341ea66f77af130324453e0ed9b51afd5e54565f80604051610ec0929190611529565b60405180910390a15b50565b335f82604051610edc9190611205565b90815260200160405180910390206001015f6101000a81548173ffffffffffffffffffffffffffffffffffffffff021916908373ffffffffffffffffffffffffffffffffffffffff1602179055507fc57f6c02bf9c5fbdac025b71c1341ea66f77af130324453e0ed9b51afd5e545660015f604051610f5c92919061187d565b60405180910390a150565b5f604051905090565b5f80fd5b5f80fd5b5f80fd5b5f80fd5b5f601f19601f8301169050919050565b7f4e487b71000000000000000000000000000000000000000000000000000000005f52604160045260245ffd5b610fc682610f80565b810181811067ffffffffffffffff82111715610fe557610fe4610f90565b5b80604052505050565b5f610ff7610f67565b90506110038282610fbd565b919050565b5f67ffffffffffffffff82111561102257611021610f90565b5b61102b82610f80565b9050602081019050919050565b828183375f83830152505050565b5f61105861105384611008565b610fee565b90508281526020810184848401111561107457611073610f7c565b5b61107f848285611038565b509392505050565b5f82601f83011261109b5761109a610f78565b5b81356110ab848260208601611046565b91505092915050565b5f602082840312156110c9576110c8610f70565b5b5f82013567ffffffffffffffff8111156110e6576110e5610f74565b5b6110f284828501611087565b91505092915050565b5f82825260208201905092915050565b7f596f75206e65656420746f20706179206d6f7265207468616e20302e316574685f8201527f6572000000000000000000000000000000000000000000000000000000000000602082015250565b5f6111656022836110fb565b91506111708261110b565b604082019050919050565b5f6020820190508181035f83015261119281611159565b9050919050565b5f81519050919050565b5f81905092915050565b5f5b838110156111ca5780820151818401526020810190506111af565b5f8484015250505050565b5f6111df82611199565b6111e981856111a3565b93506111f98185602086016111ad565b80840191505092915050565b5f61121082846111d5565b915081905092915050565b7f5061796d656e74207375636365737366756c00000000000000000000000000005f82015250565b5f61124f6012836110fb565b915061125a8261121b565b602082019050919050565b5f8115159050919050565b61127981611265565b82525050565b5f819050919050565b6112918161127f565b82525050565b5f6060820190508181035f8301526112ae81611243565b90506112bd6020830185611270565b6112ca6040830184611288565b9392505050565b5f819050919050565b5f819050919050565b5f6112fd6112f86112f3846112d1565b6112da565b61127f565b9050919050565b61130d816112e3565b82525050565b5f6060820190508181035f83015261132a81611159565b90506113396020830185611270565b6113466040830184611304565b9392505050565b7f596f7520617265206e6f742074686520637573746f6d657200000000000000005f82015250565b5f6113816018836110fb565b915061138c8261134d565b602082019050919050565b5f6020820190508181035f8301526113ae81611375565b9050919050565b7f4e487b71000000000000000000000000000000000000000000000000000000005f52601260045260245ffd5b7f4e487b71000000000000000000000000000000000000000000000000000000005f52601160045260245ffd5b5f6114198261127f565b91506114248361127f565b925082611434576114336113b5565b5b828204905092915050565b5f6114498261127f565b91506114548361127f565b925082820390508181111561146c5761146b6113e2565b5b92915050565b5f61147c8261127f565b91506114878361127f565b925082820190508082111561149f5761149e6113e2565b5b92915050565b7f5061727469616c207061796d656e74207375636365737366756c0000000000005f82015250565b5f6114d9601a836110fb565b91506114e4826114a5565b602082019050919050565b5f6060820190508181035f830152611506816114cd565b90506115156020830185611270565b6115226040830184611288565b9392505050565b5f6060820190508181035f83015261154081611375565b905061154f6020830185611270565b61155c6040830184611304565b9392505050565b7f596f7520617265206e6f7420746865206861776b6572000000000000000000005f82015250565b5f6115976016836110fb565b91506115a282611563565b602082019050919050565b5f6020820190508181035f8301526115c48161158b565b9050919050565b7f596f752068617665206e6f206d6f6e657920746f2077697468647261770000005f82015250565b5f6115ff601d836110fb565b915061160a826115cb565b602082019050919050565b5f6020820190508181035f83015261162c816115f3565b9050919050565b7f4861776b6572205769746864726177616c207375636365737366756c000000005f82015250565b5f611667601c836110fb565b915061167282611633565b602082019050919050565b5f6060820190508181035f8301526116948161165b565b90506116a36020830185611270565b6116b06040830184611288565b9392505050565b5f6060820190508181035f8301526116ce816115f3565b90506116dd6020830185611270565b6116ea6040830184611304565b9392505050565b5f6060820190508181035f8301526117088161158b565b90506117176020830185611270565b6117246040830184611304565b9392505050565b7f5061796d656e742063616e63656c6c6174696f6e207375636365737366756c005f82015250565b5f61175f601f836110fb565b915061176a8261172b565b602082019050919050565b5f6060820190508181035f83015261178c81611753565b905061179b6020830185611270565b6117a86040830184611288565b9392505050565b7f436f6d706c657465207061796d656e74207375636365737366756c00000000005f82015250565b5f6117e3601b836110fb565b91506117ee826117af565b602082019050919050565b5f6060820190508181035f830152611810816117d7565b905061181f6020830185611270565b61182c6040830184611288565b9392505050565b7f4861776b6572206964206e6f74656400000000000000000000000000000000005f82015250565b5f611867600f836110fb565b915061187282611833565b602082019050919050565b5f6060820190508181035f8301526118948161185b565b90506118a36020830185611270565b6118b06040830184611304565b939250505056fea26469706673582212200afbc767fb84b418ba390cd0728d0f3a7c8a1ecad288faee7aca8aae7f701ef764736f6c63430008140033",
  "immutableReferences": {},
  "source": "// SPDX-License-Identifier: MIT\r\npragma solidity >=0.4.22 <0.9.0;\r\n\r\ncontract HawkerHut {\r\n  struct details {\r\n    address payable customer;\r\n    address payable hawker;\r\n    uint256 cus_amount;\r\n    uint256 hawker_amount;\r\n  }\r\n  event success(string message, bool result, uint256 amount);\r\n  mapping(string => details) hawkerStalls;\r\n\r\n  //Customer side-> approve function (where customer address is noted and customer pays)\r\n  function pay(string memory id) public payable {\r\n    if (msg.value >= 0.1 ether) {\r\n      require(msg.value >= 0.1 ether, \"You need to pay more than 0.1ether\");\r\n      hawkerStalls[id].customer = payable(msg.sender);\r\n      hawkerStalls[id].hawker = payable(msg.sender);\r\n      hawkerStalls[id].cus_amount = msg.value;\r\n      hawkerStalls[id].hawker_amount = 0;\r\n        emit success(\"Payment successful\", true, msg.value);\r\n    } else {\r\n      payable(msg.sender).transfer(msg.value);\r\n      emit success(\"You need to pay more than 0.1ether\", false,0);\r\n    }\r\n  }\r\n\r\n  //Hawker side-> accept function (where hawker address is noted)\r\n  function hawkerId(string memory id) public {\r\n    hawkerStalls[id].hawker = payable(msg.sender);\r\n    emit success(\"Hawker id noted\", true,0);\r\n  }\r\n\r\n  //Customer side-> cancel function (where customer can cancel the payment and withdraw the money)\r\n  function cancelPayment(string memory id) public {\r\n    if ((hawkerStalls[id].customer == msg.sender)||(hawkerStalls[id].hawker == msg.sender)) {\r\n      if (hawkerStalls[id].cus_amount > 0) {\r\n        require(\r\n          ((hawkerStalls[id].customer == msg.sender)||(hawkerStalls[id].hawker == msg.sender)),\r\n          \"You are not the customer\"\r\n        );\r\n        require(\r\n          hawkerStalls[id].cus_amount > 0,\r\n          \"You have no money to withdraw\"\r\n        );\r\n        uint256 amounte = hawkerStalls[id].cus_amount;\r\n        hawkerStalls[id].cus_amount = 0;\r\n        payable(msg.sender).transfer(amounte);\r\n        emit success(\"Payment cancellation successful\", true, amounte);\r\n      } else {\r\n        emit success(\"You have no money to withdraw\", false,0);\r\n      }\r\n    } else {\r\n      emit success(\"You are not the customer\", false,0);\r\n    }\r\n  }\r\n\r\n  //Customer side-> partial payment function\r\n  //(where customer can assign half the amount to hawker and withdraw rest)\r\n  function partialPayment(string memory id) public {\r\n    if (hawkerStalls[id].customer == msg.sender) {\r\n      require(\r\n        hawkerStalls[id].customer == msg.sender,\r\n        \"You are not the customer\"\r\n      );\r\n      uint256 amount = hawkerStalls[id].cus_amount / 2;\r\n      hawkerStalls[id].cus_amount -= amount;\r\n      hawkerStalls[id].hawker_amount += amount;\r\n      payable(msg.sender).transfer(amount);\r\n      emit success(\"Partial payment successful\", true, amount);\r\n    } else {\r\n      emit success(\"You are not the customer\", false,0);\r\n    }\r\n  }\r\n\r\n  //Customer side-> complete payment function\r\n  //(where customer can assign the complete amount to hawker)\r\n  function completePayment(string memory id) public {\r\n    if (hawkerStalls[id].customer == msg.sender) {\r\n      require(\r\n        hawkerStalls[id].customer == msg.sender,\r\n        \"You are not the customer\"\r\n      );\r\n      uint256 amount = hawkerStalls[id].cus_amount;\r\n      hawkerStalls[id].cus_amount -= amount;\r\n      hawkerStalls[id].hawker_amount += amount;\r\n      emit success(\"Complete payment successful\", true, amount);\r\n    } else {\r\n      emit success(\"You are not the customer\", false,0);\r\n    }\r\n  }\r\n\r\n  //Hawker side-> withdraw function (where hawker can withdraw the money)\r\n  function hawker_withdraw(string memory id) public {\r\n    if (hawkerStalls[id].hawker == msg.sender) {\r\n      if (hawkerStalls[id].hawker_amount > 0) {\r\n        require(\r\n          hawkerStalls[id].hawker == msg.sender,\r\n          \"You are not the hawker\"\r\n        );\r\n        require(\r\n          hawkerStalls[id].hawker_amount > 0,\r\n          \"You have no money to withdraw\"\r\n        );\r\n        uint256 amounte = hawkerStalls[id].hawker_amount;\r\n        hawkerStalls[id].hawker_amount = 0;\r\n        payable(msg.sender).transfer(amounte);\r\n        emit success(\"Hawker Withdrawal successful\", true, amounte);\r\n      } else {\r\n        emit success(\"You have no money to withdraw\", false,0);\r\n      }\r\n    } else {\r\n      emit success(\"You are not the hawker\", false,0);\r\n    }\r\n  }\r\n}\r\n",
  "sourcePath": "D:\\codes\\prototypeHHweb3\\client\\truffle\\contracts\\HawkerHut.sol",
  "compiler": {
    "name": "solc",
    "version": "0.8.20+commit.a1b79de6.Emscripten.clang"
  },
  "schemaVersion": "3.4.4",
  "updatedAt": "2023-07-01T16:33:22.566Z",
  "devdoc": {
    "kind": "dev",
    "methods": {},
    "version": 1
  },
  "userdoc": {
    "kind": "user",
    "methods": {},
    "version": 1
  }
}