{
  "contractName": "HawkerHut",
  "abi": [
    {
      "anonymous": false,
      "inputs": [
        {
          "indexed": false,
          "internalType": "string",
          "name": "message",
          "type": "string"
        },
        {
          "indexed": false,
          "internalType": "bool",
          "name": "result",
          "type": "bool"
        },
        {
          "indexed": false,
          "internalType": "uint256",
          "name": "amount",
          "type": "uint256"
        }
      ],
      "name": "success",
      "type": "event"
    },
    {
      "inputs": [
        {
          "internalType": "string",
          "name": "id",
          "type": "string"
        }
      ],
      "name": "pay",
      "outputs": [],
      "stateMutability": "payable",
      "type": "function",
      "payable": true
    },
    {
      "inputs": [
        {
          "internalType": "string",
          "name": "id",
          "type": "string"
        }
      ],
      "name": "hawkerId",
      "outputs": [],
      "stateMutability": "nonpayable",
      "type": "function"
    },
    {
      "inputs": [
        {
          "internalType": "string",
          "name": "id",
          "type": "string"
        }
      ],
      "name": "cancelPayment",
      "outputs": [],
      "stateMutability": "nonpayable",
      "type": "function"
    },
    {
      "inputs": [
        {
          "internalType": "string",
          "name": "id",
          "type": "string"
        }
      ],
      "name": "partialPayment",
      "outputs": [],
      "stateMutability": "nonpayable",
      "type": "function"
    },
    {
      "inputs": [
        {
          "internalType": "string",
          "name": "id",
          "type": "string"
        }
      ],
      "name": "completePayment",
      "outputs": [],
      "stateMutability": "nonpayable",
      "type": "function"
    },
    {
      "inputs": [
        {
          "internalType": "string",
          "name": "id",
          "type": "string"
        }
      ],
      "name": "hawker_withdraw",
      "outputs": [],
      "stateMutability": "nonpayable",
      "type": "function"
    }
  ],
  "bytecode": "0x608060405234801561001057600080fd5b506114cc806100206000396000f3fe6080604052600436106100555760003560e01c80632b66d72e1461005a57806332410f651461007657806373dc16061461009f57806384126e01146100c8578063b6b89528146100f1578063fb2b20561461011a575b600080fd5b610074600480360381019061006f9190610cce565b610143565b005b34801561008257600080fd5b5061009d60048036038101906100989190610cce565b610322565b005b3480156100ab57600080fd5b506100c660048036038101906100c19190610cce565b6104fd565b005b3480156100d457600080fd5b506100ef60048036038101906100ea9190610cce565b6106ea565b005b3480156100fd57600080fd5b5061011860048036038101906101139190610cce565b61094f565b005b34801561012657600080fd5b50610141600480360381019061013c9190610cce565b610ad6565b005b67016345785d8a0000341061029d57336000826040516101639190610d88565b908152602001604051809103902060000160006101000a81548173ffffffffffffffffffffffffffffffffffffffff021916908373ffffffffffffffffffffffffffffffffffffffff160217905550336000826040516101c39190610d88565b908152602001604051809103902060010160006101000a81548173ffffffffffffffffffffffffffffffffffffffff021916908373ffffffffffffffffffffffffffffffffffffffff160217905550346000826040516102239190610d88565b908152602001604051809103902060020181905550600080826040516102499190610d88565b9081526020016040518091039020600301819055507fc57f6c02bf9c5fbdac025b71c1341ea66f77af130324453e0ed9b51afd5e5456600134604051610290929190610e30565b60405180910390a161031f565b3373ffffffffffffffffffffffffffffffffffffffff166108fc349081150290604051600060405180830381858888f193505050501580156102e3573d6000803e3d6000fd5b507fc57f6c02bf9c5fbdac025b71c1341ea66f77af130324453e0ed9b51afd5e5456600080604051610316929190610f23565b60405180910390a15b50565b3373ffffffffffffffffffffffffffffffffffffffff166000826040516103499190610d88565b908152602001604051809103902060000160009054906101000a900473ffffffffffffffffffffffffffffffffffffffff1673ffffffffffffffffffffffffffffffffffffffff16036104bf57600060026000836040516103aa9190610d88565b9081526020016040518091039020600201546103c69190610fbd565b9050806000836040516103d99190610d88565b908152602001604051809103902060020160008282546103f99190610fee565b92505081905550806000836040516104119190610d88565b908152602001604051809103902060030160008282546104319190611022565b925050819055503373ffffffffffffffffffffffffffffffffffffffff166108fc829081150290604051600060405180830381858888f1935050505015801561047e573d6000803e3d6000fd5b507fc57f6c02bf9c5fbdac025b71c1341ea66f77af130324453e0ed9b51afd5e54566001826040516104b19291906110a2565b60405180910390a1506104fa565b7fc57f6c02bf9c5fbdac025b71c1341ea66f77af130324453e0ed9b51afd5e54566000806040516104f192919061112a565b60405180910390a15b50565b3373ffffffffffffffffffffffffffffffffffffffff166000826040516105249190610d88565b908152602001604051809103902060010160009054906101000a900473ffffffffffffffffffffffffffffffffffffffff1673ffffffffffffffffffffffffffffffffffffffff16036106ac57600080826040516105829190610d88565b908152602001604051809103902060030154111561066c57600080826040516105ab9190610d88565b9081526020016040518091039020600301549050600080836040516105d09190610d88565b9081526020016040518091039020600301819055503373ffffffffffffffffffffffffffffffffffffffff166108fc829081150290604051600060405180830381858888f1935050505015801561062b573d6000803e3d6000fd5b507fc57f6c02bf9c5fbdac025b71c1341ea66f77af130324453e0ed9b51afd5e545660018260405161065e9291906111b2565b60405180910390a1506106a7565b7fc57f6c02bf9c5fbdac025b71c1341ea66f77af130324453e0ed9b51afd5e545660008060405161069e92919061123a565b60405180910390a15b6106e7565b7fc57f6c02bf9c5fbdac025b71c1341ea66f77af130324453e0ed9b51afd5e54566000806040516106de9291906112c2565b60405180910390a15b50565b3373ffffffffffffffffffffffffffffffffffffffff166000826040516107119190610d88565b908152602001604051809103902060000160009054906101000a900473ffffffffffffffffffffffffffffffffffffffff1673ffffffffffffffffffffffffffffffffffffffff1614806107d157503373ffffffffffffffffffffffffffffffffffffffff166000826040516107879190610d88565b908152602001604051809103902060010160009054906101000a900473ffffffffffffffffffffffffffffffffffffffff1673ffffffffffffffffffffffffffffffffffffffff16145b1561091157600080826040516107e79190610d88565b90815260200160405180910390206002015411156108d157600080826040516108109190610d88565b9081526020016040518091039020600201549050600080836040516108359190610d88565b9081526020016040518091039020600201819055503373ffffffffffffffffffffffffffffffffffffffff166108fc829081150290604051600060405180830381858888f19350505050158015610890573d6000803e3d6000fd5b507fc57f6c02bf9c5fbdac025b71c1341ea66f77af130324453e0ed9b51afd5e54566001826040516108c392919061134a565b60405180910390a15061090c565b7fc57f6c02bf9c5fbdac025b71c1341ea66f77af130324453e0ed9b51afd5e545660008060405161090392919061123a565b60405180910390a15b61094c565b7fc57f6c02bf9c5fbdac025b71c1341ea66f77af130324453e0ed9b51afd5e545660008060405161094392919061112a565b60405180910390a15b50565b3373ffffffffffffffffffffffffffffffffffffffff166000826040516109769190610d88565b908152602001604051809103902060000160009054906101000a900473ffffffffffffffffffffffffffffffffffffffff1673ffffffffffffffffffffffffffffffffffffffff1603610a9857600080826040516109d49190610d88565b9081526020016040518091039020600201549050806000836040516109f99190610d88565b90815260200160405180910390206002016000828254610a199190610fee565b9250508190555080600083604051610a319190610d88565b90815260200160405180910390206003016000828254610a519190611022565b925050819055507fc57f6c02bf9c5fbdac025b71c1341ea66f77af130324453e0ed9b51afd5e5456600182604051610a8a9291906113d2565b60405180910390a150610ad3565b7fc57f6c02bf9c5fbdac025b71c1341ea66f77af130324453e0ed9b51afd5e5456600080604051610aca92919061112a565b60405180910390a15b50565b33600082604051610ae79190610d88565b908152602001604051809103902060010160006101000a81548173ffffffffffffffffffffffffffffffffffffffff021916908373ffffffffffffffffffffffffffffffffffffffff1602179055507fc57f6c02bf9c5fbdac025b71c1341ea66f77af130324453e0ed9b51afd5e545660016000604051610b6992919061145a565b60405180910390a150565b6000604051905090565b600080fd5b600080fd5b600080fd5b600080fd5b6000601f19601f8301169050919050565b7f4e487b7100000000000000000000000000000000000000000000000000000000600052604160045260246000fd5b610bdb82610b92565b810181811067ffffffffffffffff82111715610bfa57610bf9610ba3565b5b80604052505050565b6000610c0d610b74565b9050610c198282610bd2565b919050565b600067ffffffffffffffff821115610c3957610c38610ba3565b5b610c4282610b92565b9050602081019050919050565b82818337600083830152505050565b6000610c71610c6c84610c1e565b610c03565b905082815260208101848484011115610c8d57610c8c610b8d565b5b610c98848285610c4f565b509392505050565b600082601f830112610cb557610cb4610b88565b5b8135610cc5848260208601610c5e565b91505092915050565b600060208284031215610ce457610ce3610b7e565b5b600082013567ffffffffffffffff811115610d0257610d01610b83565b5b610d0e84828501610ca0565b91505092915050565b600081519050919050565b600081905092915050565b60005b83811015610d4b578082015181840152602081019050610d30565b60008484015250505050565b6000610d6282610d17565b610d6c8185610d22565b9350610d7c818560208601610d2d565b80840191505092915050565b6000610d948284610d57565b915081905092915050565b600082825260208201905092915050565b7f5061796d656e74207375636365737366756c0000000000000000000000000000600082015250565b6000610de6601283610d9f565b9150610df182610db0565b602082019050919050565b60008115159050919050565b610e1181610dfc565b82525050565b6000819050919050565b610e2a81610e17565b82525050565b60006060820190508181036000830152610e4981610dd9565b9050610e586020830185610e08565b610e656040830184610e21565b9392505050565b7f596f75206e65656420746f20706179206d6f7265207468616e20302e3165746860008201527f6572000000000000000000000000000000000000000000000000000000000000602082015250565b6000610ec8602283610d9f565b9150610ed382610e6c565b604082019050919050565b6000819050919050565b6000819050919050565b6000610f0d610f08610f0384610ede565b610ee8565b610e17565b9050919050565b610f1d81610ef2565b82525050565b60006060820190508181036000830152610f3c81610ebb565b9050610f4b6020830185610e08565b610f586040830184610f14565b9392505050565b7f4e487b7100000000000000000000000000000000000000000000000000000000600052601260045260246000fd5b7f4e487b7100000000000000000000000000000000000000000000000000000000600052601160045260246000fd5b6000610fc882610e17565b9150610fd383610e17565b925082610fe357610fe2610f5f565b5b828204905092915050565b6000610ff982610e17565b915061100483610e17565b925082820390508181111561101c5761101b610f8e565b5b92915050565b600061102d82610e17565b915061103883610e17565b92508282019050808211156110505761104f610f8e565b5b92915050565b7f5061727469616c207061796d656e74207375636365737366756c000000000000600082015250565b600061108c601a83610d9f565b915061109782611056565b602082019050919050565b600060608201905081810360008301526110bb8161107f565b90506110ca6020830185610e08565b6110d76040830184610e21565b9392505050565b7f596f7520617265206e6f742074686520637573746f6d65720000000000000000600082015250565b6000611114601883610d9f565b915061111f826110de565b602082019050919050565b6000606082019050818103600083015261114381611107565b90506111526020830185610e08565b61115f6040830184610f14565b9392505050565b7f4861776b6572205769746864726177616c207375636365737366756c00000000600082015250565b600061119c601c83610d9f565b91506111a782611166565b602082019050919050565b600060608201905081810360008301526111cb8161118f565b90506111da6020830185610e08565b6111e76040830184610e21565b9392505050565b7f596f752068617665206e6f206d6f6e657920746f207769746864726177000000600082015250565b6000611224601d83610d9f565b915061122f826111ee565b602082019050919050565b6000606082019050818103600083015261125381611217565b90506112626020830185610e08565b61126f6040830184610f14565b9392505050565b7f596f7520617265206e6f7420746865206861776b657200000000000000000000600082015250565b60006112ac601683610d9f565b91506112b782611276565b602082019050919050565b600060608201905081810360008301526112db8161129f565b90506112ea6020830185610e08565b6112f76040830184610f14565b9392505050565b7f5061796d656e742063616e63656c6c6174696f6e207375636365737366756c00600082015250565b6000611334601f83610d9f565b915061133f826112fe565b602082019050919050565b6000606082019050818103600083015261136381611327565b90506113726020830185610e08565b61137f6040830184610e21565b9392505050565b7f436f6d706c657465207061796d656e74207375636365737366756c0000000000600082015250565b60006113bc601b83610d9f565b91506113c782611386565b602082019050919050565b600060608201905081810360008301526113eb816113af565b90506113fa6020830185610e08565b6114076040830184610e21565b9392505050565b7f4861776b6572206964206e6f7465640000000000000000000000000000000000600082015250565b6000611444600f83610d9f565b915061144f8261140e565b602082019050919050565b6000606082019050818103600083015261147381611437565b90506114826020830185610e08565b61148f6040830184610f14565b939250505056fea2646970667358221220a40d4a44d3b178d469e3ca98265a318d1602a8743cf9e2334459225997d92ed664736f6c63430008120033",
  "immutableReferences": {},
  "source": "// SPDX-License-Identifier: MIT\r\npragma solidity >=0.4.22 <0.9.0;\r\n\r\ncontract HawkerHut {\r\n  struct details {\r\n    address payable customer;\r\n    address payable hawker;\r\n    uint256 cus_amount;\r\n    uint256 hawker_amount;\r\n  }\r\n  event success(string message, bool result, uint256 amount);\r\n  mapping(string => details) hawkerStalls;\r\n\r\n  //Customer side-> approve function (where customer address is noted and customer pays)\r\n  function pay(string memory id) public payable {\r\n    if (msg.value >= 0.1 ether) {\r\n      \r\n      hawkerStalls[id].customer = payable(msg.sender);\r\n      hawkerStalls[id].hawker = payable(msg.sender);\r\n      hawkerStalls[id].cus_amount = msg.value;\r\n      hawkerStalls[id].hawker_amount = 0;\r\n        emit success(\"Payment successful\", true, msg.value);\r\n    } else {\r\n      payable(msg.sender).transfer(msg.value);\r\n      emit success(\"You need to pay more than 0.1ether\", false,0);\r\n    }\r\n  }\r\n\r\n  //Hawker side-> accept function (where hawker address is noted)\r\n  function hawkerId(string memory id) public {\r\n    hawkerStalls[id].hawker = payable(msg.sender);\r\n    emit success(\"Hawker id noted\", true,0);\r\n  }\r\n\r\n  //Customer side-> cancel function (where customer can cancel the payment and withdraw the money)\r\n  function cancelPayment(string memory id) public {\r\n    if ((hawkerStalls[id].customer == msg.sender)||(hawkerStalls[id].hawker == msg.sender)) {\r\n      if (hawkerStalls[id].cus_amount > 0) {\r\n      \r\n        uint256 amounte = hawkerStalls[id].cus_amount;\r\n        hawkerStalls[id].cus_amount = 0;\r\n        payable(msg.sender).transfer(amounte);\r\n        emit success(\"Payment cancellation successful\", true, amounte);\r\n      } else {\r\n        emit success(\"You have no money to withdraw\", false,0);\r\n      }\r\n    } else {\r\n      emit success(\"You are not the customer\", false,0);\r\n    }\r\n  }\r\n\r\n  //Customer side-> partial payment function\r\n  //(where customer can assign half the amount to hawker and withdraw rest)\r\n  function partialPayment(string memory id) public {\r\n    if (hawkerStalls[id].customer == msg.sender) {\r\n      \r\n      uint256 amount = hawkerStalls[id].cus_amount / 2;\r\n      hawkerStalls[id].cus_amount -= amount;\r\n      hawkerStalls[id].hawker_amount += amount;\r\n      payable(msg.sender).transfer(amount);\r\n      emit success(\"Partial payment successful\", true, amount);\r\n    } else {\r\n      emit success(\"You are not the customer\", false,0);\r\n    }\r\n  }\r\n\r\n  //Customer side-> complete payment function\r\n  //(where customer can assign the complete amount to hawker)\r\n  function completePayment(string memory id) public {\r\n    if (hawkerStalls[id].customer == msg.sender) {\r\n      \r\n      uint256 amount = hawkerStalls[id].cus_amount;\r\n      hawkerStalls[id].cus_amount -= amount;\r\n      hawkerStalls[id].hawker_amount += amount;\r\n      emit success(\"Complete payment successful\", true, amount);\r\n    } else {\r\n      emit success(\"You are not the customer\", false,0);\r\n    }\r\n  }\r\n\r\n  //Hawker side-> withdraw function (where hawker can withdraw the money)\r\n  function hawker_withdraw(string memory id) public {\r\n    if (hawkerStalls[id].hawker == msg.sender) {\r\n      if (hawkerStalls[id].hawker_amount > 0) {\r\n        \r\n        uint256 amounte = hawkerStalls[id].hawker_amount;\r\n        hawkerStalls[id].hawker_amount = 0;\r\n        payable(msg.sender).transfer(amounte);\r\n        emit success(\"Hawker Withdrawal successful\", true, amounte);\r\n      } else {\r\n        emit success(\"You have no money to withdraw\", false,0);\r\n      }\r\n    } else {\r\n      emit success(\"You are not the hawker\", false,0);\r\n    }\r\n  }\r\n}\r\n",
  "sourcePath": "D:\\codes\\prototypeHHweb3\\client\\truffle\\contracts\\HawkerHut.sol",
  "compiler": {
    "name": "solc",
    "version": "0.8.18+commit.87f61d96.Emscripten.clang"
  },
  "schemaVersion": "3.4.4",
  "updatedAt": "2023-07-01T17:30:20.116Z",
  "networkType": "ethereum",
  "devdoc": {
    "kind": "dev",
    "methods": {},
    "version": 1
  },
  "userdoc": {
    "kind": "user",
    "methods": {},
    "version": 1
  }
}